{
  "_format": "hh-sol-artifact-1",
  "contractName": "BreedProofNFT",
  "sourceName": "contracts/BreedProofNFT.sol",
  "abi": [
    {
      "inputs": [],
      "stateMutability": "nonpayable",
      "type": "constructor"
    },
    {
      "inputs": [
        {
          "internalType": "address",
          "name": "sender",
          "type": "address"
        },
        {
          "internalType": "uint256",
          "name": "tokenId",
          "type": "uint256"
        },
        {
          "internalType": "address",
          "name": "owner",
          "type": "address"
        }
      ],
      "name": "ERC721IncorrectOwner",
      "type": "error"
    },
    {
      "inputs": [
        {
          "internalType": "address",
          "name": "operator",
          "type": "address"
        },
        {
          "internalType": "uint256",
          "name": "tokenId",
          "type": "uint256"
        }
      ],
      "name": "ERC721InsufficientApproval",
      "type": "error"
    },
    {
      "inputs": [
        {
          "internalType": "address",
          "name": "approver",
          "type": "address"
        }
      ],
      "name": "ERC721InvalidApprover",
      "type": "error"
    },
    {
      "inputs": [
        {
          "internalType": "address",
          "name": "operator",
          "type": "address"
        }
      ],
      "name": "ERC721InvalidOperator",
      "type": "error"
    },
    {
      "inputs": [
        {
          "internalType": "address",
          "name": "owner",
          "type": "address"
        }
      ],
      "name": "ERC721InvalidOwner",
      "type": "error"
    },
    {
      "inputs": [
        {
          "internalType": "address",
          "name": "receiver",
          "type": "address"
        }
      ],
      "name": "ERC721InvalidReceiver",
      "type": "error"
    },
    {
      "inputs": [
        {
          "internalType": "address",
          "name": "sender",
          "type": "address"
        }
      ],
      "name": "ERC721InvalidSender",
      "type": "error"
    },
    {
      "inputs": [
        {
          "internalType": "uint256",
          "name": "tokenId",
          "type": "uint256"
        }
      ],
      "name": "ERC721NonexistentToken",
      "type": "error"
    },
    {
      "anonymous": false,
      "inputs": [
        {
          "indexed": true,
          "internalType": "address",
          "name": "owner",
          "type": "address"
        },
        {
          "indexed": true,
          "internalType": "address",
          "name": "approved",
          "type": "address"
        },
        {
          "indexed": true,
          "internalType": "uint256",
          "name": "tokenId",
          "type": "uint256"
        }
      ],
      "name": "Approval",
      "type": "event"
    },
    {
      "anonymous": false,
      "inputs": [
        {
          "indexed": true,
          "internalType": "address",
          "name": "owner",
          "type": "address"
        },
        {
          "indexed": true,
          "internalType": "address",
          "name": "operator",
          "type": "address"
        },
        {
          "indexed": false,
          "internalType": "bool",
          "name": "approved",
          "type": "bool"
        }
      ],
      "name": "ApprovalForAll",
      "type": "event"
    },
    {
      "anonymous": false,
      "inputs": [
        {
          "indexed": true,
          "internalType": "address",
          "name": "from",
          "type": "address"
        },
        {
          "indexed": true,
          "internalType": "address",
          "name": "to",
          "type": "address"
        },
        {
          "indexed": true,
          "internalType": "uint256",
          "name": "tokenId",
          "type": "uint256"
        }
      ],
      "name": "Transfer",
      "type": "event"
    },
    {
      "inputs": [
        {
          "internalType": "address",
          "name": "to",
          "type": "address"
        },
        {
          "internalType": "uint256",
          "name": "tokenId",
          "type": "uint256"
        }
      ],
      "name": "approve",
      "outputs": [],
      "stateMutability": "nonpayable",
      "type": "function"
    },
    {
      "inputs": [
        {
          "internalType": "address",
          "name": "owner",
          "type": "address"
        }
      ],
      "name": "balanceOf",
      "outputs": [
        {
          "internalType": "uint256",
          "name": "",
          "type": "uint256"
        }
      ],
      "stateMutability": "view",
      "type": "function"
    },
    {
      "inputs": [
        {
          "internalType": "uint256",
          "name": "",
          "type": "uint256"
        }
      ],
      "name": "dnaHashes",
      "outputs": [
        {
          "internalType": "string",
          "name": "",
          "type": "string"
        }
      ],
      "stateMutability": "view",
      "type": "function"
    },
    {
      "inputs": [
        {
          "internalType": "uint256",
          "name": "tokenId",
          "type": "uint256"
        }
      ],
      "name": "getApproved",
      "outputs": [
        {
          "internalType": "address",
          "name": "",
          "type": "address"
        }
      ],
      "stateMutability": "view",
      "type": "function"
    },
    {
      "inputs": [
        {
          "internalType": "uint256",
          "name": "tokenId",
          "type": "uint256"
        }
      ],
      "name": "getDNA",
      "outputs": [
        {
          "internalType": "string",
          "name": "",
          "type": "string"
        }
      ],
      "stateMutability": "view",
      "type": "function"
    },
    {
      "inputs": [
        {
          "internalType": "address",
          "name": "owner",
          "type": "address"
        },
        {
          "internalType": "address",
          "name": "operator",
          "type": "address"
        }
      ],
      "name": "isApprovedForAll",
      "outputs": [
        {
          "internalType": "bool",
          "name": "",
          "type": "bool"
        }
      ],
      "stateMutability": "view",
      "type": "function"
    },
    {
      "inputs": [
        {
          "internalType": "string",
          "name": "dnaHash",
          "type": "string"
        }
      ],
      "name": "mintBreedNFT",
      "outputs": [],
      "stateMutability": "nonpayable",
      "type": "function"
    },
    {
      "inputs": [],
      "name": "name",
      "outputs": [
        {
          "internalType": "string",
          "name": "",
          "type": "string"
        }
      ],
      "stateMutability": "view",
      "type": "function"
    },
    {
      "inputs": [
        {
          "internalType": "uint256",
          "name": "tokenId",
          "type": "uint256"
        }
      ],
      "name": "ownerOf",
      "outputs": [
        {
          "internalType": "address",
          "name": "",
          "type": "address"
        }
      ],
      "stateMutability": "view",
      "type": "function"
    },
    {
      "inputs": [
        {
          "internalType": "address",
          "name": "from",
          "type": "address"
        },
        {
          "internalType": "address",
          "name": "to",
          "type": "address"
        },
        {
          "internalType": "uint256",
          "name": "tokenId",
          "type": "uint256"
        }
      ],
      "name": "safeTransferFrom",
      "outputs": [],
      "stateMutability": "nonpayable",
      "type": "function"
    },
    {
      "inputs": [
        {
          "internalType": "address",
          "name": "from",
          "type": "address"
        },
        {
          "internalType": "address",
          "name": "to",
          "type": "address"
        },
        {
          "internalType": "uint256",
          "name": "tokenId",
          "type": "uint256"
        },
        {
          "internalType": "bytes",
          "name": "data",
          "type": "bytes"
        }
      ],
      "name": "safeTransferFrom",
      "outputs": [],
      "stateMutability": "nonpayable",
      "type": "function"
    },
    {
      "inputs": [
        {
          "internalType": "address",
          "name": "operator",
          "type": "address"
        },
        {
          "internalType": "bool",
          "name": "approved",
          "type": "bool"
        }
      ],
      "name": "setApprovalForAll",
      "outputs": [],
      "stateMutability": "nonpayable",
      "type": "function"
    },
    {
      "inputs": [
        {
          "internalType": "bytes4",
          "name": "interfaceId",
          "type": "bytes4"
        }
      ],
      "name": "supportsInterface",
      "outputs": [
        {
          "internalType": "bool",
          "name": "",
          "type": "bool"
        }
      ],
      "stateMutability": "view",
      "type": "function"
    },
    {
      "inputs": [],
      "name": "symbol",
      "outputs": [
        {
          "internalType": "string",
          "name": "",
          "type": "string"
        }
      ],
      "stateMutability": "view",
      "type": "function"
    },
    {
      "inputs": [],
      "name": "tokenCounter",
      "outputs": [
        {
          "internalType": "uint256",
          "name": "",
          "type": "uint256"
        }
      ],
      "stateMutability": "view",
      "type": "function"
    },
    {
      "inputs": [
        {
          "internalType": "uint256",
          "name": "tokenId",
          "type": "uint256"
        }
      ],
      "name": "tokenURI",
      "outputs": [
        {
          "internalType": "string",
          "name": "",
          "type": "string"
        }
      ],
      "stateMutability": "view",
      "type": "function"
    },
    {
      "inputs": [
        {
          "internalType": "address",
          "name": "from",
          "type": "address"
        },
        {
          "internalType": "address",
          "name": "to",
          "type": "address"
        },
        {
          "internalType": "uint256",
          "name": "tokenId",
          "type": "uint256"
        }
      ],
      "name": "transferFrom",
      "outputs": [],
      "stateMutability": "nonpayable",
      "type": "function"
    }
  ],
  "bytecode": "0x60806040523480156200001157600080fd5b506040518060400160405280600a81526020017f427265656450726f6f66000000000000000000000000000000000000000000008152506040518060400160405280600481526020017f425244500000000000000000000000000000000000000000000000000000000081525081600090816200008f919062000324565b508060019081620000a1919062000324565b5050506200040b565b600081519050919050565b7f4e487b7100000000000000000000000000000000000000000000000000000000600052604160045260246000fd5b7f4e487b7100000000000000000000000000000000000000000000000000000000600052602260045260246000fd5b600060028204905060018216806200012c57607f821691505b602082108103620001425762000141620000e4565b5b50919050565b60008190508160005260206000209050919050565b60006020601f8301049050919050565b600082821b905092915050565b600060088302620001ac7fffffffffffffffffffffffffffffffffffffffffffffffffffffffffffffffff826200016d565b620001b886836200016d565b95508019841693508086168417925050509392505050565b6000819050919050565b6000819050919050565b600062000205620001ff620001f984620001d0565b620001da565b620001d0565b9050919050565b6000819050919050565b6200022183620001e4565b6200023962000230826200020c565b8484546200017a565b825550505050565b600090565b6200025062000241565b6200025d81848462000216565b505050565b5b8181101562000285576200027960008262000246565b60018101905062000263565b5050565b601f821115620002d4576200029e8162000148565b620002a9846200015d565b81016020851015620002b9578190505b620002d1620002c8856200015d565b83018262000262565b50505b505050565b600082821c905092915050565b6000620002f960001984600802620002d9565b1980831691505092915050565b6000620003148383620002e6565b9150826002028217905092915050565b6200032f82620000aa565b67ffffffffffffffff8111156200034b576200034a620000b5565b5b62000357825462000113565b6200036482828562000289565b600060209050601f8311600181146200039c576000841562000387578287015190505b62000393858262000306565b86555062000403565b601f198416620003ac8662000148565b60005b82811015620003d657848901518255600182019150602085019450602081019050620003af565b86831015620003f65784890151620003f2601f891682620002e6565b8355505b6001600288020188555050505b505050505050565b612403806200041b6000396000f3fe608060405234801561001057600080fd5b506004361061010b5760003560e01c806370a08231116100a2578063c87b56dd11610071578063c87b56dd146102c8578063cf374793146102f8578063d082e38114610314578063e985e9c514610332578063f47e4200146103625761010b565b806370a082311461024257806395d89b4114610272578063a22cb46514610290578063b88d4fde146102ac5761010b565b806323b872dd116100de57806323b872dd146101aa57806342842e0e146101c65780635bb209a5146101e25780636352211e146102125761010b565b806301ffc9a71461011057806306fdde0314610140578063081812fc1461015e578063095ea7b31461018e575b600080fd5b61012a6004803603810190610125919061186e565b610392565b60405161013791906118b6565b60405180910390f35b610148610474565b6040516101559190611961565b60405180910390f35b610178600480360381019061017391906119b9565b610506565b6040516101859190611a27565b60405180910390f35b6101a860048036038101906101a39190611a6e565b610522565b005b6101c460048036038101906101bf9190611aae565b610538565b005b6101e060048036038101906101db9190611aae565b61063a565b005b6101fc60048036038101906101f791906119b9565b61065a565b6040516102099190611961565b60405180910390f35b61022c600480360381019061022791906119b9565b6106ff565b6040516102399190611a27565b60405180910390f35b61025c60048036038101906102579190611b01565b610711565b6040516102699190611b3d565b60405180910390f35b61027a6107cb565b6040516102879190611961565b60405180910390f35b6102aa60048036038101906102a59190611b84565b61085d565b005b6102c660048036038101906102c19190611cf9565b610873565b005b6102e260048036038101906102dd91906119b9565b610898565b6040516102ef9190611961565b60405180910390f35b610312600480360381019061030d9190611e1d565b610901565b005b61031c61094b565b6040516103299190611b3d565b60405180910390f35b61034c60048036038101906103479190611e66565b610951565b60405161035991906118b6565b60405180910390f35b61037c600480360381019061037791906119b9565b6109e5565b6040516103899190611961565b60405180910390f35b60007f80ac58cd000000000000000000000000000000000000000000000000000000007bffffffffffffffffffffffffffffffffffffffffffffffffffffffff1916827bffffffffffffffffffffffffffffffffffffffffffffffffffffffff1916148061045d57507f5b5e139f000000000000000000000000000000000000000000000000000000007bffffffffffffffffffffffffffffffffffffffffffffffffffffffff1916827bffffffffffffffffffffffffffffffffffffffffffffffffffffffff1916145b8061046d575061046c82610a85565b5b9050919050565b60606000805461048390611ed5565b80601f01602080910402602001604051908101604052809291908181526020018280546104af90611ed5565b80156104fc5780601f106104d1576101008083540402835291602001916104fc565b820191906000526020600020905b8154815290600101906020018083116104df57829003601f168201915b5050505050905090565b600061051182610aef565b5061051b82610b77565b9050919050565b610534828261052f610bb4565b610bbc565b5050565b600073ffffffffffffffffffffffffffffffffffffffff168273ffffffffffffffffffffffffffffffffffffffff16036105aa5760006040517f64a0ae920000000000000000000000000000000000000000000000000000000081526004016105a19190611a27565b60405180910390fd5b60006105be83836105b9610bb4565b610bce565b90508373ffffffffffffffffffffffffffffffffffffffff168173ffffffffffffffffffffffffffffffffffffffff1614610634578382826040517f64283d7b00000000000000000000000000000000000000000000000000000000815260040161062b93929190611f06565b60405180910390fd5b50505050565b61065583838360405180602001604052806000815250610873565b505050565b606060076000838152602001908152602001600020805461067a90611ed5565b80601f01602080910402602001604051908101604052809291908181526020018280546106a690611ed5565b80156106f35780601f106106c8576101008083540402835291602001916106f3565b820191906000526020600020905b8154815290600101906020018083116106d657829003601f168201915b50505050509050919050565b600061070a82610aef565b9050919050565b60008073ffffffffffffffffffffffffffffffffffffffff168273ffffffffffffffffffffffffffffffffffffffff16036107845760006040517f89c62b6400000000000000000000000000000000000000000000000000000000815260040161077b9190611a27565b60405180910390fd5b600360008373ffffffffffffffffffffffffffffffffffffffff1673ffffffffffffffffffffffffffffffffffffffff168152602001908152602001600020549050919050565b6060600180546107da90611ed5565b80601f016020809104026020016040519081016040528092919081815260200182805461080690611ed5565b80156108535780601f1061082857610100808354040283529160200191610853565b820191906000526020600020905b81548152906001019060200180831161083657829003601f168201915b5050505050905090565b61086f610868610bb4565b8383610de8565b5050565b61087e848484610538565b610892610889610bb4565b85858585610f57565b50505050565b60606108a382610aef565b5060006108ae611108565b905060008151116108ce57604051806020016040528060008152506108f9565b806108d88461111f565b6040516020016108e9929190611f79565b6040516020818303038152906040525b915050919050565b61090d336006546111ed565b80600760006006548152602001908152602001600020908161092f9190612149565b50600660008154809291906109439061224a565b919050555050565b60065481565b6000600560008473ffffffffffffffffffffffffffffffffffffffff1673ffffffffffffffffffffffffffffffffffffffff16815260200190815260200160002060008373ffffffffffffffffffffffffffffffffffffffff1673ffffffffffffffffffffffffffffffffffffffff16815260200190815260200160002060009054906101000a900460ff16905092915050565b60076020528060005260406000206000915090508054610a0490611ed5565b80601f0160208091040260200160405190810160405280929190818152602001828054610a3090611ed5565b8015610a7d5780601f10610a5257610100808354040283529160200191610a7d565b820191906000526020600020905b815481529060010190602001808311610a6057829003601f168201915b505050505081565b60007f01ffc9a7000000000000000000000000000000000000000000000000000000007bffffffffffffffffffffffffffffffffffffffffffffffffffffffff1916827bffffffffffffffffffffffffffffffffffffffffffffffffffffffff1916149050919050565b600080610afb8361120b565b9050600073ffffffffffffffffffffffffffffffffffffffff168173ffffffffffffffffffffffffffffffffffffffff1603610b6e57826040517f7e273289000000000000000000000000000000000000000000000000000000008152600401610b659190611b3d565b60405180910390fd5b80915050919050565b60006004600083815260200190815260200160002060009054906101000a900473ffffffffffffffffffffffffffffffffffffffff169050919050565b600033905090565b610bc98383836001611248565b505050565b600080610bda8461120b565b9050600073ffffffffffffffffffffffffffffffffffffffff168373ffffffffffffffffffffffffffffffffffffffff1614610c1c57610c1b81848661140d565b5b600073ffffffffffffffffffffffffffffffffffffffff168173ffffffffffffffffffffffffffffffffffffffff1614610cad57610c5e600085600080611248565b6001600360008373ffffffffffffffffffffffffffffffffffffffff1673ffffffffffffffffffffffffffffffffffffffff168152602001908152602001600020600082825403925050819055505b600073ffffffffffffffffffffffffffffffffffffffff168573ffffffffffffffffffffffffffffffffffffffff1614610d30576001600360008773ffffffffffffffffffffffffffffffffffffffff1673ffffffffffffffffffffffffffffffffffffffff168152602001908152602001600020600082825401925050819055505b846002600086815260200190815260200160002060006101000a81548173ffffffffffffffffffffffffffffffffffffffff021916908373ffffffffffffffffffffffffffffffffffffffff160217905550838573ffffffffffffffffffffffffffffffffffffffff168273ffffffffffffffffffffffffffffffffffffffff167fddf252ad1be2c89b69c2b068fc378daa952ba7f163c4a11628f55a4df523b3ef60405160405180910390a4809150509392505050565b600073ffffffffffffffffffffffffffffffffffffffff168273ffffffffffffffffffffffffffffffffffffffff1603610e5957816040517f5b08ba18000000000000000000000000000000000000000000000000000000008152600401610e509190611a27565b60405180910390fd5b80600560008573ffffffffffffffffffffffffffffffffffffffff1673ffffffffffffffffffffffffffffffffffffffff16815260200190815260200160002060008473ffffffffffffffffffffffffffffffffffffffff1673ffffffffffffffffffffffffffffffffffffffff16815260200190815260200160002060006101000a81548160ff0219169083151502179055508173ffffffffffffffffffffffffffffffffffffffff168373ffffffffffffffffffffffffffffffffffffffff167f17307eab39ab6107e8899845ad3d59bd9653f200f220920489ca2b5937696c3183604051610f4a91906118b6565b60405180910390a3505050565b60008373ffffffffffffffffffffffffffffffffffffffff163b1115611101578273ffffffffffffffffffffffffffffffffffffffff1663150b7a02868685856040518563ffffffff1660e01b8152600401610fb694939291906122e7565b6020604051808303816000875af1925050508015610ff257506040513d601f19601f82011682018060405250810190610fef9190612348565b60015b611076573d8060008114611022576040519150601f19603f3d011682016040523d82523d6000602084013e611027565b606091505b50600081510361106e57836040517f64a0ae920000000000000000000000000000000000000000000000000000000081526004016110659190611a27565b60405180910390fd5b805181602001fd5b63150b7a0260e01b7bffffffffffffffffffffffffffffffffffffffffffffffffffffffff1916817bffffffffffffffffffffffffffffffffffffffffffffffffffffffff1916146110ff57836040517f64a0ae920000000000000000000000000000000000000000000000000000000081526004016110f69190611a27565b60405180910390fd5b505b5050505050565b606060405180602001604052806000815250905090565b60606000600161112e846114d1565b01905060008167ffffffffffffffff81111561114d5761114c611bce565b5b6040519080825280601f01601f19166020018201604052801561117f5781602001600182028036833780820191505090505b509050600082602001820190505b6001156111e2578080600190039150507f3031323334353637383961626364656600000000000000000000000000000000600a86061a8153600a85816111d6576111d5612375565b5b0494506000850361118d575b819350505050919050565b611207828260405180602001604052806000815250611624565b5050565b60006002600083815260200190815260200160002060009054906101000a900473ffffffffffffffffffffffffffffffffffffffff169050919050565b80806112815750600073ffffffffffffffffffffffffffffffffffffffff168273ffffffffffffffffffffffffffffffffffffffff1614155b156113b557600061129184610aef565b9050600073ffffffffffffffffffffffffffffffffffffffff168373ffffffffffffffffffffffffffffffffffffffff16141580156112fc57508273ffffffffffffffffffffffffffffffffffffffff168173ffffffffffffffffffffffffffffffffffffffff1614155b801561130f575061130d8184610951565b155b1561135157826040517fa9fbf51f0000000000000000000000000000000000000000000000000000000081526004016113489190611a27565b60405180910390fd5b81156113b357838573ffffffffffffffffffffffffffffffffffffffff168273ffffffffffffffffffffffffffffffffffffffff167f8c5be1e5ebec7d5bd14f71427d1e84f3dd0314c0f7b2291e5b200ac8c7c3b92560405160405180910390a45b505b836004600085815260200190815260200160002060006101000a81548173ffffffffffffffffffffffffffffffffffffffff021916908373ffffffffffffffffffffffffffffffffffffffff16021790555050505050565b611418838383611648565b6114cc57600073ffffffffffffffffffffffffffffffffffffffff168373ffffffffffffffffffffffffffffffffffffffff160361148d57806040517f7e2732890000000000000000000000000000000000000000000000000000000081526004016114849190611b3d565b60405180910390fd5b81816040517f177e802f0000000000000000000000000000000000000000000000000000000081526004016114c39291906123a4565b60405180910390fd5b505050565b600080600090507a184f03e93ff9f4daa797ed6e38ed64bf6a1f010000000000000000831061152f577a184f03e93ff9f4daa797ed6e38ed64bf6a1f010000000000000000838161152557611524612375565b5b0492506040810190505b6d04ee2d6d415b85acef8100000000831061156c576d04ee2d6d415b85acef8100000000838161156257611561612375565b5b0492506020810190505b662386f26fc10000831061159b57662386f26fc10000838161159157611590612375565b5b0492506010810190505b6305f5e10083106115c4576305f5e10083816115ba576115b9612375565b5b0492506008810190505b61271083106115e95761271083816115df576115de612375565b5b0492506004810190505b6064831061160c576064838161160257611601612375565b5b0492506002810190505b600a831061161b576001810190505b80915050919050565b61162e8383611709565b611643611639610bb4565b6000858585610f57565b505050565b60008073ffffffffffffffffffffffffffffffffffffffff168373ffffffffffffffffffffffffffffffffffffffff161415801561170057508273ffffffffffffffffffffffffffffffffffffffff168473ffffffffffffffffffffffffffffffffffffffff1614806116c157506116c08484610951565b5b806116ff57508273ffffffffffffffffffffffffffffffffffffffff166116e783610b77565b73ffffffffffffffffffffffffffffffffffffffff16145b5b90509392505050565b600073ffffffffffffffffffffffffffffffffffffffff168273ffffffffffffffffffffffffffffffffffffffff160361177b5760006040517f64a0ae920000000000000000000000000000000000000000000000000000000081526004016117729190611a27565b60405180910390fd5b600061178983836000610bce565b9050600073ffffffffffffffffffffffffffffffffffffffff168173ffffffffffffffffffffffffffffffffffffffff16146117fd5760006040517f73c6ac6e0000000000000000000000000000000000000000000000000000000081526004016117f49190611a27565b60405180910390fd5b505050565b6000604051905090565b600080fd5b600080fd5b60007fffffffff0000000000000000000000000000000000000000000000000000000082169050919050565b61184b81611816565b811461185657600080fd5b50565b60008135905061186881611842565b92915050565b6000602082840312156118845761188361180c565b5b600061189284828501611859565b91505092915050565b60008115159050919050565b6118b08161189b565b82525050565b60006020820190506118cb60008301846118a7565b92915050565b600081519050919050565b600082825260208201905092915050565b60005b8381101561190b5780820151818401526020810190506118f0565b60008484015250505050565b6000601f19601f8301169050919050565b6000611933826118d1565b61193d81856118dc565b935061194d8185602086016118ed565b61195681611917565b840191505092915050565b6000602082019050818103600083015261197b8184611928565b905092915050565b6000819050919050565b61199681611983565b81146119a157600080fd5b50565b6000813590506119b38161198d565b92915050565b6000602082840312156119cf576119ce61180c565b5b60006119dd848285016119a4565b91505092915050565b600073ffffffffffffffffffffffffffffffffffffffff82169050919050565b6000611a11826119e6565b9050919050565b611a2181611a06565b82525050565b6000602082019050611a3c6000830184611a18565b92915050565b611a4b81611a06565b8114611a5657600080fd5b50565b600081359050611a6881611a42565b92915050565b60008060408385031215611a8557611a8461180c565b5b6000611a9385828601611a59565b9250506020611aa4858286016119a4565b9150509250929050565b600080600060608486031215611ac757611ac661180c565b5b6000611ad586828701611a59565b9350506020611ae686828701611a59565b9250506040611af7868287016119a4565b9150509250925092565b600060208284031215611b1757611b1661180c565b5b6000611b2584828501611a59565b91505092915050565b611b3781611983565b82525050565b6000602082019050611b526000830184611b2e565b92915050565b611b618161189b565b8114611b6c57600080fd5b50565b600081359050611b7e81611b58565b92915050565b60008060408385031215611b9b57611b9a61180c565b5b6000611ba985828601611a59565b9250506020611bba85828601611b6f565b9150509250929050565b600080fd5b600080fd5b7f4e487b7100000000000000000000000000000000000000000000000000000000600052604160045260246000fd5b611c0682611917565b810181811067ffffffffffffffff82111715611c2557611c24611bce565b5b80604052505050565b6000611c38611802565b9050611c448282611bfd565b919050565b600067ffffffffffffffff821115611c6457611c63611bce565b5b611c6d82611917565b9050602081019050919050565b82818337600083830152505050565b6000611c9c611c9784611c49565b611c2e565b905082815260208101848484011115611cb857611cb7611bc9565b5b611cc3848285611c7a565b509392505050565b600082601f830112611ce057611cdf611bc4565b5b8135611cf0848260208601611c89565b91505092915050565b60008060008060808587031215611d1357611d1261180c565b5b6000611d2187828801611a59565b9450506020611d3287828801611a59565b9350506040611d43878288016119a4565b925050606085013567ffffffffffffffff811115611d6457611d63611811565b5b611d7087828801611ccb565b91505092959194509250565b600067ffffffffffffffff821115611d9757611d96611bce565b5b611da082611917565b9050602081019050919050565b6000611dc0611dbb84611d7c565b611c2e565b905082815260208101848484011115611ddc57611ddb611bc9565b5b611de7848285611c7a565b509392505050565b600082601f830112611e0457611e03611bc4565b5b8135611e14848260208601611dad565b91505092915050565b600060208284031215611e3357611e3261180c565b5b600082013567ffffffffffffffff811115611e5157611e50611811565b5b611e5d84828501611def565b91505092915050565b60008060408385031215611e7d57611e7c61180c565b5b6000611e8b85828601611a59565b9250506020611e9c85828601611a59565b9150509250929050565b7f4e487b7100000000000000000000000000000000000000000000000000000000600052602260045260246000fd5b60006002820490506001821680611eed57607f821691505b602082108103611f0057611eff611ea6565b5b50919050565b6000606082019050611f1b6000830186611a18565b611f286020830185611b2e565b611f356040830184611a18565b949350505050565b600081905092915050565b6000611f53826118d1565b611f5d8185611f3d565b9350611f6d8185602086016118ed565b80840191505092915050565b6000611f858285611f48565b9150611f918284611f48565b91508190509392505050565b60008190508160005260206000209050919050565b60006020601f8301049050919050565b600082821b905092915050565b600060088302611fff7fffffffffffffffffffffffffffffffffffffffffffffffffffffffffffffffff82611fc2565b6120098683611fc2565b95508019841693508086168417925050509392505050565b6000819050919050565b600061204661204161203c84611983565b612021565b611983565b9050919050565b6000819050919050565b6120608361202b565b61207461206c8261204d565b848454611fcf565b825550505050565b600090565b61208961207c565b612094818484612057565b505050565b5b818110156120b8576120ad600082612081565b60018101905061209a565b5050565b601f8211156120fd576120ce81611f9d565b6120d784611fb2565b810160208510156120e6578190505b6120fa6120f285611fb2565b830182612099565b50505b505050565b600082821c905092915050565b600061212060001984600802612102565b1980831691505092915050565b6000612139838361210f565b9150826002028217905092915050565b612152826118d1565b67ffffffffffffffff81111561216b5761216a611bce565b5b6121758254611ed5565b6121808282856120bc565b600060209050601f8311600181146121b357600084156121a1578287015190505b6121ab858261212d565b865550612213565b601f1984166121c186611f9d565b60005b828110156121e9578489015182556001820191506020850194506020810190506121c4565b868310156122065784890151612202601f89168261210f565b8355505b6001600288020188555050505b505050505050565b7f4e487b7100000000000000000000000000000000000000000000000000000000600052601160045260246000fd5b600061225582611983565b91507fffffffffffffffffffffffffffffffffffffffffffffffffffffffffffffffff82036122875761228661221b565b5b600182019050919050565b600081519050919050565b600082825260208201905092915050565b60006122b982612292565b6122c3818561229d565b93506122d38185602086016118ed565b6122dc81611917565b840191505092915050565b60006080820190506122fc6000830187611a18565b6123096020830186611a18565b6123166040830185611b2e565b818103606083015261232881846122ae565b905095945050505050565b60008151905061234281611842565b92915050565b60006020828403121561235e5761235d61180c565b5b600061236c84828501612333565b91505092915050565b7f4e487b7100000000000000000000000000000000000000000000000000000000600052601260045260246000fd5b60006040820190506123b96000830185611a18565b6123c66020830184611b2e565b939250505056fea2646970667358221220f3590090ef74ddbd1495d969eaef0e11d833a67c330960178019a6ecfc69efbe64736f6c63430008140033",
  "linkReferences": {},
  "deployedLinkReferences": {}
}