{
  "_format": "hh-sol-artifact-1",
  "contractName": "BreedProofRegistry",
  "sourceName": "contracts/BreedProofRegistry.sol",
  "abi": [
    {
      "anonymous": false,
      "inputs": [
        {
          "indexed": true,
          "internalType": "string",
          "name": "animalId",
          "type": "string"
        },
        {
          "indexed": false,
          "internalType": "bytes32",
          "name": "dnaHash",
          "type": "bytes32"
        },
        {
          "indexed": true,
          "internalType": "address",
          "name": "owner",
          "type": "address"
        }
      ],
      "name": "AnimalRegistered",
      "type": "event"
    },
    {
      "anonymous": false,
      "inputs": [
        {
          "indexed": true,
          "internalType": "string",
          "name": "animalId",
          "type": "string"
        },
        {
          "indexed": false,
          "internalType": "uint256",
          "name": "score",
          "type": "uint256"
        }
      ],
      "name": "ScoreUpdated",
      "type": "event"
    },
    {
      "inputs": [
        {
          "internalType": "string",
          "name": "",
          "type": "string"
        }
      ],
      "name": "animals",
      "outputs": [
        {
          "internalType": "string",
          "name": "animalId",
          "type": "string"
        },
        {
          "internalType": "bytes32",
          "name": "dnaHash",
          "type": "bytes32"
        },
        {
          "internalType": "uint256",
          "name": "score",
          "type": "uint256"
        },
        {
          "internalType": "bool",
          "name": "verified",
          "type": "bool"
        },
        {
          "internalType": "address",
          "name": "owner",
          "type": "address"
        }
      ],
      "stateMutability": "view",
      "type": "function"
    },
    {
      "inputs": [
        {
          "internalType": "string",
          "name": "animalId",
          "type": "string"
        }
      ],
      "name": "getAnimal",
      "outputs": [
        {
          "components": [
            {
              "internalType": "string",
              "name": "animalId",
              "type": "string"
            },
            {
              "internalType": "bytes32",
              "name": "dnaHash",
              "type": "bytes32"
            },
            {
              "internalType": "uint256",
              "name": "score",
              "type": "uint256"
            },
            {
              "internalType": "bool",
              "name": "verified",
              "type": "bool"
            },
            {
              "internalType": "address",
              "name": "owner",
              "type": "address"
            }
          ],
          "internalType": "struct BreedProofRegistry.Animal",
          "name": "",
          "type": "tuple"
        }
      ],
      "stateMutability": "view",
      "type": "function"
    },
    {
      "inputs": [
        {
          "internalType": "string",
          "name": "animalId",
          "type": "string"
        },
        {
          "internalType": "bytes32",
          "name": "dnaHash",
          "type": "bytes32"
        }
      ],
      "name": "registerAnimal",
      "outputs": [],
      "stateMutability": "nonpayable",
      "type": "function"
    },
    {
      "inputs": [
        {
          "internalType": "string",
          "name": "animalId",
          "type": "string"
        },
        {
          "internalType": "uint256",
          "name": "newScore",
          "type": "uint256"
        }
      ],
      "name": "updateScore",
      "outputs": [],
      "stateMutability": "nonpayable",
      "type": "function"
    }
  ],
  "bytecode": "0x608060405234801561001057600080fd5b506110a0806100206000396000f3fe608060405234801561001057600080fd5b506004361061004c5760003560e01c8063338e65aa146100515780637e617eca14610081578063972b70c7146100b5578063b5264efd146100d1575b600080fd5b61006b6004803603810190610066919061084d565b6100ed565b6040516100789190610a19565b60405180910390f35b61009b6004803603810190610096919061084d565b61023c565b6040516100ac959493929190610ac1565b60405180910390f35b6100cf60048036038101906100ca9190610b47565b61033d565b005b6100eb60048036038101906100e69190610bcf565b610548565b005b6100f56106a9565b6000826040516101059190610c67565b90815260200160405180910390206040518060a001604052908160008201805461012e90610cad565b80601f016020809104026020016040519081016040528092919081815260200182805461015a90610cad565b80156101a75780601f1061017c576101008083540402835291602001916101a7565b820191906000526020600020905b81548152906001019060200180831161018a57829003601f168201915b5050505050815260200160018201548152602001600282015481526020016003820160009054906101000a900460ff161515151581526020016003820160019054906101000a900473ffffffffffffffffffffffffffffffffffffffff1673ffffffffffffffffffffffffffffffffffffffff1673ffffffffffffffffffffffffffffffffffffffff16815250509050919050565b60008180516020810182018051848252602083016020850120818352809550505050505060009150905080600001805461027590610cad565b80601f01602080910402602001604051908101604052809291908181526020018280546102a190610cad565b80156102ee5780601f106102c3576101008083540402835291602001916102ee565b820191906000526020600020905b8154815290600101906020018083116102d157829003601f168201915b5050505050908060010154908060020154908060030160009054906101000a900460ff16908060030160019054906101000a900473ffffffffffffffffffffffffffffffffffffffff16905085565b600073ffffffffffffffffffffffffffffffffffffffff166000836040516103659190610c67565b908152602001604051809103902060030160019054906101000a900473ffffffffffffffffffffffffffffffffffffffff1673ffffffffffffffffffffffffffffffffffffffff16146103ed576040517f08c379a00000000000000000000000000000000000000000000000000000000081526004016103e490610d2a565b60405180910390fd5b6040518060a00160405280838152602001828152602001600081526020016000151581526020013373ffffffffffffffffffffffffffffffffffffffff1681525060008360405161043e9190610c67565b908152602001604051809103902060008201518160000190816104619190610ef6565b50602082015181600101556040820151816002015560608201518160030160006101000a81548160ff02191690831515021790555060808201518160030160016101000a81548173ffffffffffffffffffffffffffffffffffffffff021916908373ffffffffffffffffffffffffffffffffffffffff1602179055509050503373ffffffffffffffffffffffffffffffffffffffff16826040516105059190610c67565b60405180910390207f6eae79eff6d75b6ceba90d13784e01d7b54725ee254b4063b0e8ad01fe5df8908360405161053c9190610fc8565b60405180910390a35050565b600073ffffffffffffffffffffffffffffffffffffffff166000836040516105709190610c67565b908152602001604051809103902060030160019054906101000a900473ffffffffffffffffffffffffffffffffffffffff1673ffffffffffffffffffffffffffffffffffffffff16036105f8576040517f08c379a00000000000000000000000000000000000000000000000000000000081526004016105ef9061102f565b60405180910390fd5b806000836040516106099190610c67565b90815260200160405180910390206002018190555060016000836040516106309190610c67565b908152602001604051809103902060030160006101000a81548160ff021916908315150217905550816040516106669190610c67565b60405180910390207ff73f15cd52466745952e88c0cb369d680231cce7fbd11551c1ce297be7ebdc418260405161069d919061104f565b60405180910390a25050565b6040518060a00160405280606081526020016000801916815260200160008152602001600015158152602001600073ffffffffffffffffffffffffffffffffffffffff1681525090565b6000604051905090565b600080fd5b600080fd5b600080fd5b600080fd5b6000601f19601f8301169050919050565b7f4e487b7100000000000000000000000000000000000000000000000000000000600052604160045260246000fd5b61075a82610711565b810181811067ffffffffffffffff8211171561077957610778610722565b5b80604052505050565b600061078c6106f3565b90506107988282610751565b919050565b600067ffffffffffffffff8211156107b8576107b7610722565b5b6107c182610711565b9050602081019050919050565b82818337600083830152505050565b60006107f06107eb8461079d565b610782565b90508281526020810184848401111561080c5761080b61070c565b5b6108178482856107ce565b509392505050565b600082601f83011261083457610833610707565b5b81356108448482602086016107dd565b91505092915050565b600060208284031215610863576108626106fd565b5b600082013567ffffffffffffffff81111561088157610880610702565b5b61088d8482850161081f565b91505092915050565b600081519050919050565b600082825260208201905092915050565b60005b838110156108d05780820151818401526020810190506108b5565b60008484015250505050565b60006108e782610896565b6108f181856108a1565b93506109018185602086016108b2565b61090a81610711565b840191505092915050565b6000819050919050565b61092881610915565b82525050565b6000819050919050565b6109418161092e565b82525050565b60008115159050919050565b61095c81610947565b82525050565b600073ffffffffffffffffffffffffffffffffffffffff82169050919050565b600061098d82610962565b9050919050565b61099d81610982565b82525050565b600060a08301600083015184820360008601526109c082826108dc565b91505060208301516109d5602086018261091f565b5060408301516109e86040860182610938565b5060608301516109fb6060860182610953565b506080830151610a0e6080860182610994565b508091505092915050565b60006020820190508181036000830152610a3381846109a3565b905092915050565b600082825260208201905092915050565b6000610a5782610896565b610a618185610a3b565b9350610a718185602086016108b2565b610a7a81610711565b840191505092915050565b610a8e81610915565b82525050565b610a9d8161092e565b82525050565b610aac81610947565b82525050565b610abb81610982565b82525050565b600060a0820190508181036000830152610adb8188610a4c565b9050610aea6020830187610a85565b610af76040830186610a94565b610b046060830185610aa3565b610b116080830184610ab2565b9695505050505050565b610b2481610915565b8114610b2f57600080fd5b50565b600081359050610b4181610b1b565b92915050565b60008060408385031215610b5e57610b5d6106fd565b5b600083013567ffffffffffffffff811115610b7c57610b7b610702565b5b610b888582860161081f565b9250506020610b9985828601610b32565b9150509250929050565b610bac8161092e565b8114610bb757600080fd5b50565b600081359050610bc981610ba3565b92915050565b60008060408385031215610be657610be56106fd565b5b600083013567ffffffffffffffff811115610c0457610c03610702565b5b610c108582860161081f565b9250506020610c2185828601610bba565b9150509250929050565b600081905092915050565b6000610c4182610896565b610c4b8185610c2b565b9350610c5b8185602086016108b2565b80840191505092915050565b6000610c738284610c36565b915081905092915050565b7f4e487b7100000000000000000000000000000000000000000000000000000000600052602260045260246000fd5b60006002820490506001821680610cc557607f821691505b602082108103610cd857610cd7610c7e565b5b50919050565b7f416e696d616c20616c7265616479207265676973746572656400000000000000600082015250565b6000610d14601983610a3b565b9150610d1f82610cde565b602082019050919050565b60006020820190508181036000830152610d4381610d07565b9050919050565b60008190508160005260206000209050919050565b60006020601f8301049050919050565b600082821b905092915050565b600060088302610dac7fffffffffffffffffffffffffffffffffffffffffffffffffffffffffffffffff82610d6f565b610db68683610d6f565b95508019841693508086168417925050509392505050565b6000819050919050565b6000610df3610dee610de98461092e565b610dce565b61092e565b9050919050565b6000819050919050565b610e0d83610dd8565b610e21610e1982610dfa565b848454610d7c565b825550505050565b600090565b610e36610e29565b610e41818484610e04565b505050565b5b81811015610e6557610e5a600082610e2e565b600181019050610e47565b5050565b601f821115610eaa57610e7b81610d4a565b610e8484610d5f565b81016020851015610e93578190505b610ea7610e9f85610d5f565b830182610e46565b50505b505050565b600082821c905092915050565b6000610ecd60001984600802610eaf565b1980831691505092915050565b6000610ee68383610ebc565b9150826002028217905092915050565b610eff82610896565b67ffffffffffffffff811115610f1857610f17610722565b5b610f228254610cad565b610f2d828285610e69565b600060209050601f831160018114610f605760008415610f4e578287015190505b610f588582610eda565b865550610fc0565b601f198416610f6e86610d4a565b60005b82811015610f9657848901518255600182019150602085019450602081019050610f71565b86831015610fb35784890151610faf601f891682610ebc565b8355505b6001600288020188555050505b505050505050565b6000602082019050610fdd6000830184610a85565b92915050565b7f416e696d616c206e6f7420666f756e6400000000000000000000000000000000600082015250565b6000611019601083610a3b565b915061102482610fe3565b602082019050919050565b600060208201905081810360008301526110488161100c565b9050919050565b60006020820190506110646000830184610a94565b9291505056fea2646970667358221220e59f9cb3155eee62a8c150bd2ea3365af25d41e0ce1733776ccd471cfc67a75d64736f6c63430008140033",
  "linkReferences": {},
  "deployedLinkReferences": {}
}