{
  "_format": "hh-sol-artifact-1",
  "contractName": "BreedOracleConsumer",
  "sourceName": "contracts/BreedOracleConsumer.sol",
  "abi": [
    {
      "anonymous": false,
      "inputs": [
        {
          "indexed": true,
          "internalType": "string",
          "name": "animalId",
          "type": "string"
        },
        {
          "indexed": true,
          "internalType": "bytes32",
          "name": "dnaHash",
          "type": "bytes32"
        },
        {
          "indexed": false,
          "internalType": "string",
          "name": "breed",
          "type": "string"
        },
        {
          "indexed": false,
          "internalType": "string",
          "name": "species",
          "type": "string"
        },
        {
          "indexed": true,
          "internalType": "address",
          "name": "owner",
          "type": "address"
        }
      ],
      "name": "AnimalRegistered",
      "type": "event"
    },
    {
      "anonymous": false,
      "inputs": [
        {
          "indexed": true,
          "internalType": "string",
          "name": "animalId",
          "type": "string"
        },
        {
          "indexed": false,
          "internalType": "bool",
          "name": "verified",
          "type": "bool"
        }
      ],
      "name": "AnimalVerified",
      "type": "event"
    },
    {
      "anonymous": false,
      "inputs": [
        {
          "indexed": true,
          "internalType": "string",
          "name": "animalId",
          "type": "string"
        },
        {
          "indexed": false,
          "internalType": "uint256",
          "name": "score",
          "type": "uint256"
        }
      ],
      "name": "ScoreAssigned",
      "type": "event"
    },
    {
      "inputs": [
        {
          "internalType": "string",
          "name": "",
          "type": "string"
        }
      ],
      "name": "animals",
      "outputs": [
        {
          "internalType": "string",
          "name": "animalId",
          "type": "string"
        },
        {
          "internalType": "bytes32",
          "name": "dnaHash",
          "type": "bytes32"
        },
        {
          "internalType": "string",
          "name": "breed",
          "type": "string"
        },
        {
          "internalType": "string",
          "name": "species",
          "type": "string"
        },
        {
          "internalType": "uint256",
          "name": "score",
          "type": "uint256"
        },
        {
          "internalType": "bool",
          "name": "verified",
          "type": "bool"
        },
        {
          "internalType": "address",
          "name": "owner",
          "type": "address"
        }
      ],
      "stateMutability": "view",
      "type": "function"
    },
    {
      "inputs": [
        {
          "internalType": "string",
          "name": "animalId",
          "type": "string"
        },
        {
          "internalType": "uint256",
          "name": "score",
          "type": "uint256"
        }
      ],
      "name": "assignScore",
      "outputs": [],
      "stateMutability": "nonpayable",
      "type": "function"
    },
    {
      "inputs": [
        {
          "internalType": "string",
          "name": "animalId",
          "type": "string"
        }
      ],
      "name": "getAnimal",
      "outputs": [
        {
          "internalType": "string",
          "name": "",
          "type": "string"
        },
        {
          "internalType": "bytes32",
          "name": "",
          "type": "bytes32"
        },
        {
          "internalType": "string",
          "name": "",
          "type": "string"
        },
        {
          "internalType": "string",
          "name": "",
          "type": "string"
        },
        {
          "internalType": "uint256",
          "name": "",
          "type": "uint256"
        },
        {
          "internalType": "bool",
          "name": "",
          "type": "bool"
        },
        {
          "internalType": "address",
          "name": "",
          "type": "address"
        }
      ],
      "stateMutability": "view",
      "type": "function"
    },
    {
      "inputs": [
        {
          "internalType": "string",
          "name": "animalId",
          "type": "string"
        },
        {
          "internalType": "bytes32",
          "name": "dnaHash",
          "type": "bytes32"
        },
        {
          "internalType": "string",
          "name": "breed",
          "type": "string"
        },
        {
          "internalType": "string",
          "name": "species",
          "type": "string"
        }
      ],
      "name": "registerAnimal",
      "outputs": [],
      "stateMutability": "nonpayable",
      "type": "function"
    }
  ],
  "bytecode": "0x608060405234801561001057600080fd5b50611308806100206000396000f3fe608060405234801561001057600080fd5b506004361061004c5760003560e01c80630e62bf2f14610051578063139df9c11461006d578063338e65aa146100895780637e617eca146100bf575b600080fd5b61006b60048036038101906100669190610b49565b6100f5565b005b61008760048036038101906100829190610c3a565b61033d565b005b6100a3600480360381019061009e9190610c96565b6104ec565b6040516100b69796959493929190610dd8565b60405180910390f35b6100d960048036038101906100d49190610c96565b61079c565b6040516100ec9796959493929190610dd8565b60405180910390f35b600073ffffffffffffffffffffffffffffffffffffffff1660008560405161011d9190610e98565b908152602001604051809103902060050160019054906101000a900473ffffffffffffffffffffffffffffffffffffffff1673ffffffffffffffffffffffffffffffffffffffff16146101a5576040517f08c379a000000000000000000000000000000000000000000000000000000000815260040161019c90610efb565b60405180910390fd5b6040518060e00160405280858152602001848152602001838152602001828152602001600081526020016000151581526020013373ffffffffffffffffffffffffffffffffffffffff168152506000856040516102029190610e98565b908152602001604051809103902060008201518160000190816102259190611127565b506020820151816001015560408201518160020190816102459190611127565b50606082015181600301908161025b9190611127565b506080820151816004015560a08201518160050160006101000a81548160ff02191690831515021790555060c08201518160050160016101000a81548173ffffffffffffffffffffffffffffffffffffffff021916908373ffffffffffffffffffffffffffffffffffffffff1602179055509050503373ffffffffffffffffffffffffffffffffffffffff1683856040516102f69190610e98565b60405180910390207f9e61d85d122a48222acbf2aa3bffd162559aec0323048d44f54a7c40d0ef8d28858560405161032f9291906111f9565b60405180910390a450505050565b600073ffffffffffffffffffffffffffffffffffffffff166000836040516103659190610e98565b908152602001604051809103902060050160019054906101000a900473ffffffffffffffffffffffffffffffffffffffff1673ffffffffffffffffffffffffffffffffffffffff16036103ed576040517f08c379a00000000000000000000000000000000000000000000000000000000081526004016103e49061127c565b60405180910390fd5b806000836040516103fe9190610e98565b90815260200160405180910390206004018190555060016000836040516104259190610e98565b908152602001604051809103902060050160006101000a81548160ff0219169083151502179055508160405161045b9190610e98565b60405180910390207fe00a5d3dd4e5904d5dd589160652e49b884f734a0d0d82b466ee9bef9c4193d782604051610492919061129c565b60405180910390a2816040516104a89190610e98565b60405180910390207fd2b652c46b40c1df534c2ae45f5e52682485894526b4441d6cc11177fcaa1e5060016040516104e091906112b7565b60405180910390a25050565b606060006060806000806000806000896040516105099190610e98565b90815260200160405180910390206040518060e001604052908160008201805461053290610f4a565b80601f016020809104026020016040519081016040528092919081815260200182805461055e90610f4a565b80156105ab5780601f10610580576101008083540402835291602001916105ab565b820191906000526020600020905b81548152906001019060200180831161058e57829003601f168201915b50505050508152602001600182015481526020016002820180546105ce90610f4a565b80601f01602080910402602001604051908101604052809291908181526020018280546105fa90610f4a565b80156106475780601f1061061c57610100808354040283529160200191610647565b820191906000526020600020905b81548152906001019060200180831161062a57829003601f168201915b5050505050815260200160038201805461066090610f4a565b80601f016020809104026020016040519081016040528092919081815260200182805461068c90610f4a565b80156106d95780601f106106ae576101008083540402835291602001916106d9565b820191906000526020600020905b8154815290600101906020018083116106bc57829003601f168201915b50505050508152602001600482015481526020016005820160009054906101000a900460ff161515151581526020016005820160019054906101000a900473ffffffffffffffffffffffffffffffffffffffff1673ffffffffffffffffffffffffffffffffffffffff1673ffffffffffffffffffffffffffffffffffffffff16815250509050806000015181602001518260400151836060015184608001518560a001518660c00151975097509750975097509750975050919395979092949650565b6000818051602081018201805184825260208301602085012081835280955050505050506000915090508060000180546107d590610f4a565b80601f016020809104026020016040519081016040528092919081815260200182805461080190610f4a565b801561084e5780601f106108235761010080835404028352916020019161084e565b820191906000526020600020905b81548152906001019060200180831161083157829003601f168201915b50505050509080600101549080600201805461086990610f4a565b80601f016020809104026020016040519081016040528092919081815260200182805461089590610f4a565b80156108e25780601f106108b7576101008083540402835291602001916108e2565b820191906000526020600020905b8154815290600101906020018083116108c557829003601f168201915b5050505050908060030180546108f790610f4a565b80601f016020809104026020016040519081016040528092919081815260200182805461092390610f4a565b80156109705780601f1061094557610100808354040283529160200191610970565b820191906000526020600020905b81548152906001019060200180831161095357829003601f168201915b5050505050908060040154908060050160009054906101000a900460ff16908060050160019054906101000a900473ffffffffffffffffffffffffffffffffffffffff16905087565b6000604051905090565b600080fd5b600080fd5b600080fd5b600080fd5b6000601f19601f8301169050919050565b7f4e487b7100000000000000000000000000000000000000000000000000000000600052604160045260246000fd5b610a20826109d7565b810181811067ffffffffffffffff82111715610a3f57610a3e6109e8565b5b80604052505050565b6000610a526109b9565b9050610a5e8282610a17565b919050565b600067ffffffffffffffff821115610a7e57610a7d6109e8565b5b610a87826109d7565b9050602081019050919050565b82818337600083830152505050565b6000610ab6610ab184610a63565b610a48565b905082815260208101848484011115610ad257610ad16109d2565b5b610add848285610a94565b509392505050565b600082601f830112610afa57610af96109cd565b5b8135610b0a848260208601610aa3565b91505092915050565b6000819050919050565b610b2681610b13565b8114610b3157600080fd5b50565b600081359050610b4381610b1d565b92915050565b60008060008060808587031215610b6357610b626109c3565b5b600085013567ffffffffffffffff811115610b8157610b806109c8565b5b610b8d87828801610ae5565b9450506020610b9e87828801610b34565b935050604085013567ffffffffffffffff811115610bbf57610bbe6109c8565b5b610bcb87828801610ae5565b925050606085013567ffffffffffffffff811115610bec57610beb6109c8565b5b610bf887828801610ae5565b91505092959194509250565b6000819050919050565b610c1781610c04565b8114610c2257600080fd5b50565b600081359050610c3481610c0e565b92915050565b60008060408385031215610c5157610c506109c3565b5b600083013567ffffffffffffffff811115610c6f57610c6e6109c8565b5b610c7b85828601610ae5565b9250506020610c8c85828601610c25565b9150509250929050565b600060208284031215610cac57610cab6109c3565b5b600082013567ffffffffffffffff811115610cca57610cc96109c8565b5b610cd684828501610ae5565b91505092915050565b600081519050919050565b600082825260208201905092915050565b60005b83811015610d19578082015181840152602081019050610cfe565b60008484015250505050565b6000610d3082610cdf565b610d3a8185610cea565b9350610d4a818560208601610cfb565b610d53816109d7565b840191505092915050565b610d6781610b13565b82525050565b610d7681610c04565b82525050565b60008115159050919050565b610d9181610d7c565b82525050565b600073ffffffffffffffffffffffffffffffffffffffff82169050919050565b6000610dc282610d97565b9050919050565b610dd281610db7565b82525050565b600060e0820190508181036000830152610df2818a610d25565b9050610e016020830189610d5e565b8181036040830152610e138188610d25565b90508181036060830152610e278187610d25565b9050610e366080830186610d6d565b610e4360a0830185610d88565b610e5060c0830184610dc9565b98975050505050505050565b600081905092915050565b6000610e7282610cdf565b610e7c8185610e5c565b9350610e8c818560208601610cfb565b80840191505092915050565b6000610ea48284610e67565b915081905092915050565b7f416c726561647920726567697374657265640000000000000000000000000000600082015250565b6000610ee5601283610cea565b9150610ef082610eaf565b602082019050919050565b60006020820190508181036000830152610f1481610ed8565b9050919050565b7f4e487b7100000000000000000000000000000000000000000000000000000000600052602260045260246000fd5b60006002820490506001821680610f6257607f821691505b602082108103610f7557610f74610f1b565b5b50919050565b60008190508160005260206000209050919050565b60006020601f8301049050919050565b600082821b905092915050565b600060088302610fdd7fffffffffffffffffffffffffffffffffffffffffffffffffffffffffffffffff82610fa0565b610fe78683610fa0565b95508019841693508086168417925050509392505050565b6000819050919050565b600061102461101f61101a84610c04565b610fff565b610c04565b9050919050565b6000819050919050565b61103e83611009565b61105261104a8261102b565b848454610fad565b825550505050565b600090565b61106761105a565b611072818484611035565b505050565b5b818110156110965761108b60008261105f565b600181019050611078565b5050565b601f8211156110db576110ac81610f7b565b6110b584610f90565b810160208510156110c4578190505b6110d86110d085610f90565b830182611077565b50505b505050565b600082821c905092915050565b60006110fe600019846008026110e0565b1980831691505092915050565b600061111783836110ed565b9150826002028217905092915050565b61113082610cdf565b67ffffffffffffffff811115611149576111486109e8565b5b6111538254610f4a565b61115e82828561109a565b600060209050601f831160018114611191576000841561117f578287015190505b611189858261110b565b8655506111f1565b601f19841661119f86610f7b565b60005b828110156111c7578489015182556001820191506020850194506020810190506111a2565b868310156111e457848901516111e0601f8916826110ed565b8355505b6001600288020188555050505b505050505050565b600060408201905081810360008301526112138185610d25565b905081810360208301526112278184610d25565b90509392505050565b7f416e696d616c206e6f7420666f756e6400000000000000000000000000000000600082015250565b6000611266601083610cea565b915061127182611230565b602082019050919050565b6000602082019050818103600083015261129581611259565b9050919050565b60006020820190506112b16000830184610d6d565b92915050565b60006020820190506112cc6000830184610d88565b9291505056fea26469706673582212208c18e27e42962ea79b8c2905983c906e7a276145ea7447e46880adb2572f0d2c64736f6c63430008140033",
  "linkReferences": {},
  "deployedLinkReferences": {}
}